:100000000C9434000C9451000C9451000C94510049
:100010000C9451000C9451000C9451000C9451001C
:100020000C9451000C9451000C9451000C9451000C
:100030000C9451000C9451000C9451000C945100FC
:100040000C9451000C9451000C9451000C945100EC
:100050000C9451000C9451000C9451000C945100DC
:100060000C9451000C94510011241FBECFEFD8E026
:10007000DEBFCDBF11E0A0E0B1E0E8E1F3E002C0F7
:1000800005900D92AC31B107D9F711E0ACE1B1E0C8
:1000900001C01D92A332B107E1F70E943C010C940C
:1000A0008A010C9400000E945E000E9487000E945A
:1000B000EF000E94FC0080E090E00895EAE7F0E0A5
:1000C000808187608083ACE7B0E08C9180648C9302
:1000D000808180688083808180648083089590918E
:1000E0007C00907F90937C0090917C00892B809382
:1000F0007C0080917A00806480937A0080917A00FD
:1001000086FDFCCF8091780090917900089587E674
:100110008093C4001092C50088E18093C10086E0FE
:100120008093C2000895FC019F01281B390B2617FC
:10013000370744F421913091C00035FFFCCF209364
:10014000C600F2CFCB0177FF02C080E090E00895B7
:10015000FC019F01281B390B2617370744F4209117
:10016000C00027FFFCCF2091C6002193F2CFCB0126
:1001700077FF02C080E090E00895A1E0B0E0E3ECFA
:10018000F0E00C94630161E070E0CE0101960E9402
:10019000A8008981992787FD90952196E2E00C942B
:1001A0007F01A2E0B0E0E7EDF0E00C946201182FCF
:1001B0008A3041F48DE08A8361E070E0CE010296DE
:1001C0000E949300198361E070E0CE0101960E94C5
:1001D000930080E090E02296E3E00C947E01EDE154
:1001E000F1E080E091E0918380838EE091E0938361
:1001F00082839583848308950895FC018081452B33
:1002000051F041E050E0062E01C0440F0A94EAF795
:10021000482B4083089521E030E0062E01C0220FD4
:100220000A94EAF72095282320830895FC01808111
:10023000452B51F041E050E0062E01C0440F0A94D6
:10024000EAF7482B4083089521E030E0062E01C0F4
:10025000220F0A94EAF72095282320830895FC01B1
:100260008081992787FD909502C0959587956A951D
:10027000E2F78170992708950E94530080E00E9460
:100280006F0080931C0161E070E08CE191E00E94BE
:1002900093002FEF84E890E2215080409040E1F7F6
:1002A00000C00000EBCF2F923F924F925F926F926F
:1002B0007F928F929F92AF92BF92CF92DF92EF92F6
:1002C000FF920F931F93CF93DF93CDB7DEB7CA1B77
:1002D000DB0B0FB6F894DEBF0FBECDBF09942A88A2
:1002E000398848885F846E847D848C849B84AA844A
:1002F000B984C884DF80EE80FD800C811B81AA81D7
:10030000B981CE0FD11D0FB6F894DEBF0FBECDBFA1
:08031000ED010895F894FFCF00
:1003180000000001000000000000BD000000000017
:0C032800000200000000D10000000000F6
:00000001FF
